:020000040000FA
:020000000328D3
:040002000034003492
:0A000600831603138701831203130E
:1000100087010E2014200E201A20092807148714A7
:100020008715071620200800071487108711071668
:100030002C200800071087148715071226200800B7
:100040001E30A3003920A30B222808000230A20092
:100050003220A20B282808000330A1003220A10B77
:100060002E2808005030A0003920A00B3428810130
:1000700008008316031307308100831203138101E4
:0A0080000108C33A031D40280800E0
:02400E00393F38
:00000001FF
